:100000000C94B1000C94CE000C94CE000C94CE0055
:100010000C94CE000C94CE000C94CE000C94CE0028
:100020000C94CE000C94CE000C94CE000C94CE0018
:100030000C94CE000C94CE000C942B020C94CE00A9
:100040000C94CE000C94CE000C94CE000C94CE00F8
:100050000C94CE000C94CE000C94CE000C94CE00E8
:100060000C94CE000C94CE0000407A10F35A00A0FD
:10007000724E18090010A5D4E80000E87648170071
:1000800000E40B54020000CA9A3B000000E1F505B1
:10009000000080969800000040420F000000A086FB
:1000A00001000000102700000000E803000000002D
:1000B0006400000000000A000000000001000000D1
:1000C00000002C76D888DC674F0823DFC1DFAE59EB
:1000D000E1B1B796E5E3E453C63AE651997696E87E
:1000E000E6C28426EB898C9B62ED407C6FFCEFBC02
:1000F0009C9F40F2BAA56FA5F490055A2AF75C932D
:100100006B6CF9676DC11BFCE0E40D47FEF520E662
:10011000B500D0ED902E0300943577050080841E45
:10012000080000204E0A000000C80C333333330FA0
:10013000986E12831141EF8D2114893BE65516CF3D
:10014000FEE6DB18D1844B381BF77C1D901DA4BB49
:10015000E424203284725E228100C9F124ECA1E5FE
:100160003D2711241FBECFEFD8E0DEBFCDBF12E088
:10017000A0E0B1E0E6EEFBE102C005900D92A430F4
:10018000B107D9F722E0A4E0B2E001C01D92A2328B
:10019000B207E1F70E9462060C94F10D0C94000086
:1001A0004F925F926F927F92AF92BF92CF92DF9207
:1001B000EF92FF920F931F93CF93DF935B0129017F
:1001C0003A01FB01E150F04CEE0FFF1FEE0FFF1F55
:1001D000E80FF91FEC0129913991499159916081FA
:1001E0007181828193810E9439086B017C0101E059
:1001F00010E081E0A81AB1080A151B05D8F020E02C
:1002000030E040E450E4C301B2010E94AA08A70113
:1002100096010E94D309DF91CF911F910F91FF901A
:10022000EF90DF90CF90BF90AF907F906F905F90F6
:100230004F900895699179918991999100FD11C02C
:1002400020E030E040E850E40E94D3099B01AC017B
:10025000C701B6010E9439086B017C010F5F1F4F77
:10026000CBCF9B01AC010E943908F0CF9A01AB01C2
:10027000FC01668177816230710520F08081918177
:100280000C94D00060E070E0CB0108959A01AB01BE
:10029000FC01668177816230710520F08281938153
:1002A0000C94D00060E070E0CB0108959A01AB019E
:1002B000FC01668177816230710520F0848195812F
:1002C0000C94D00060E070E0CB01089552985A9AE7
:1002D00089B182FB882780F991E089278093050204
:1002E0008093040208950F931F93CF93DF9389B1F6
:1002F000C1E0D82FD47082FDC0E0809105028C1738
:1003000051F00E945002609306027093070280939E
:100310000802909309020E94500200910602109177
:1003200007022091080230910902601B710B820BB9
:10033000930B633371058105910580F08091040270
:100340008C1761F0C0930402D11108C081E0809342
:100350000502DF91CF911F910F910895C09305027F
:1003600080E0F7CF8AB180678AB98BB18F788BB97B
:1003700008954F925F926F927F928F929F92AF9269
:10038000BF92CF92DF92EF92FF920F931F932B01B8
:100390003C0149015A016701780120E030E040EA60
:1003A00051E40E94CE09181654F020E030E040EAF3
:1003B00051ECC301B2010E94A50887FF3AC05C9AC4
:1003C00020E030E040EA51E4C501B4010E94CE09CA
:1003D000181654F020E030E040EA51ECC501B401B9
:1003E0000E94A50887FF27C05D9A20E030E040EA20
:1003F00051E4C701B6010E94CE09181654F020E05E
:1004000030E040EA51ECC701B6010E94A50887FF21
:1004100014C05E9A1F910F91FF90EF90DF90CF90E4
:10042000BF90AF909F908F907F906F905F904F9014
:1004300008955C98C5CF5D98D8CF5E98EBCF82E0E9
:1004400084BD15BC99EF97BD16BC80936E0083E008
:1004500085BD789408951F920F920FB60F921124C4
:100460008F939F93AF93BF93809114029091150245
:10047000A0911602B09117020196A11DB11D8093A3
:10048000140290931502A0931602B0931702BF9125
:10049000AF919F918F910F900FBE0F901F90189565
:1004A0002FB7F89460911402709115028091160292
:1004B000909117022FBF0895FC01158214821382B8
:1004C0001282118210821782168211861086089578
:1004D000FC01178216820895CF93DF93EC01888187
:1004E00099810E94FA0A8A819B810E94FA0A8C8172
:1004F0009D810E94FA0A1D821C821B821A82198227
:1005000018821F821E8219861886DF91CF91089566
:100510002F923F924F925F926F927F928F929F9213
:10052000AF92BF92CF92DF92EF92FF920F931F9301
:10053000CF93DF93CDB7DEB728970FB6F894DEBF21
:100540000FBECDBF98878F834B835C836D837E8383
:1005500028013901DC0116960D90BC91A02DBA83BB
:10056000A983CD010196EF81F88520843184281676
:10057000390608F054C02114310409F48BC0220C50
:10058000331C2816390608F47DC08101000F111FA5
:10059000000F111FC8010E945E0A4C01C8010E9491
:1005A0005E0A5C01C8010E945E0A8C0181149104FC
:1005B00009F476C0A114B10409F472C0892B09F4BE
:1005C0006FC0AF81B8858D919C9130E020E0B0E0A4
:1005D000A0E049815A814A175B0709F084C00E9454
:1005E000FA0AAF81B88512968D919C910E94FA0A01
:1005F000EF81F885848195810E94FA0AAF81B885E0
:1006000011969C928E921396BC92AE92129715966A
:100610001C930E93149719963C922E921897EF8183
:10062000F885868197819C01220F331F220F331F8B
:100630000190F081E02DE20FF31F4B815C816D8111
:100640007E814083518362837383AF81B885129624
:10065000ED91FC911397E20FF31F40825182628269
:1006600073821496ED91FC911597E20FF31FC082EF
:10067000D182E282F382019617969C938E9316970D
:1006800081E018C09101220F331F2216330630F487
:10069000190177CF60E2262E312C73CF1C0175CF64
:1006A000C4010E94FA0AC5010E94FA0AC8010E9408
:1006B000FA0A80E028960FB6F894DEBF0FBECDBFD1
:1006C000DF91CF911F910F91FF90EF90DF90CF902E
:1006D000BF90AF909F908F907F906F905F904F9062
:1006E0003F902F900895009771F0FC01E20FF31FE7
:1006F0004081518162817381F401E20FF31F4083D5
:10070000518362837383EF81F88542815381411560
:10071000510571F0420F531FFA01408151816281EE
:100720007381F501E20FF31F40835183628373836A
:10073000EF81F885448155814115510571F0420FD3
:10074000531FFA014081518162817381F801E20FE8
:10075000F31F408351836283738311962C5F3F4F55
:1007600038CFCF92DF92EF92FF920F931F93CF93E8
:100770008C01C62F80911D02861751F00E945002F5
:100780006093190270931A0280931B0290931C02CB
:100790000E945002C0901902D0901A02E0901B02F1
:1007A000F0901C026C197D098E099F096333710555
:1007B0008105910558F0809118028C1739F0C0938B
:1007C0001802CC2319F0F80117821682C0931D027B
:1007D000CF911F910F91FF90EF90DF90CF900895F0
:1007E0001092B90088E48093B800089584EA809359
:1007F000BC008091BC0087FFFCCF089584E9809302
:10080000BC0008958093BB0084E88093BC00809175
:10081000BC0087FFFCCF8091B900887F08951F93AB
:10082000CF93DF93182FD62FC42F0E94F603812F6A
:10083000880F0E9402048D2F0E9402048C2F0E94B8
:10084000020484E98093BC00DF91CF911F91089549
:1008500084EC8093BC008091BC0087FFFCCF80912A
:10086000BB00089584E88093BC008091BC0087FFA2
:10087000FCCF8091BB000895DF92EF92FF920F931F
:100880001F93CF93DF93182FF62EEA01022F0E94B9
:10089000F603812F880F0E9402048F2D0E9402040C
:1008A0000E94F603812F880F81600E940204D12CE0
:1008B0000150110BED2CF12CE016F10684F0C00F65
:1008C000D11F0E943204888384E98093BC00DF91A9
:1008D000CF911F910F91FF90EF90DF900895EC0E54
:1008E000FD1E0E942804F7018083D394E3CF9B016F
:1008F000AC01E0ECF0E080818260808360E874E825
:100900008EE190E00E941608215031093093C50015
:100910002093C40088E08093C10086E08093C200E9
:1009200008959091C00095FFFCCF8093C600089574
:10093000CF93DF93EC018991811103C0DF91CF91B7
:1009400008950E949104F7CF0F931F93CF93DF93E5
:10095000CDB7DEB760970FB6F894DEBF0FBECDBF40
:10096000242F43E0420F8E010F5F1F4F0E94400A69
:10097000C8010E94980460960FB6F894DEBF0FBEBF
:10098000CDBFDF91CF911F910F9108951F93CF930A
:10099000DF93182FD62FC42F0E94F603812F880FC4
:1009A0000E940204887F883139F00E94FE0380E0B3
:1009B000DF91CF911F9108958D2F0E9402048C2FFB
:1009C0000E9402040E94FE0381E0F2CF1F93CF93A6
:1009D000DF93C82F162FD72F0E94F6038C2F880F76
:1009E0000E940204887F883139F00E94FE0380E073
:1009F000DF91CF911F91089583E40E9402040E9429
:100A0000F6038C2F880F81600E940204887F803457
:100A100061F7E12FFD2F80E044E854EC853061F070
:100A20005093BC0029EE33E09091BC0097FD07C0C5
:100A300021503109C9F7D9CF4093BC00F3CF909131
:100A4000BB0091938F5F863049F70E94FE0381E0DF
:100A5000CFCF0E94F0032FEF81EE94E02150804031
:100A60009040E1F700C0000040E06BE688E60E949D
:100A7000C60440E06BE689E60E94C6042FEF80E7DB
:100A800092E0215080409040E1F700C0000040E03B
:100A90006BE188E60E94C60440E06BE189E60E94B3
:100AA000C6042FEF80E792E0215080409040E1F7AC
:100AB00000C0000043E169E188E60E94C60443E10A
:100AC00069E189E60E94C60446E06AE188E60E9480
:100AD000C60446E06AE189E60E94C6042FEF80E77B
:100AE00092E0215080409040E1F700C0000008955E
:100AF0002F923F924F925F926F927F928F929F922E
:100B0000AF92BF92CF92DF92EF92FF920F931F931B
:100B1000CF93DF9300D000D000D0CDB7DEB75C011B
:100B20004B013A016901BE016F5F7F4F88E60E9469
:100B3000E604882309F4A6C04B805C805424452435
:100B400054242D803E8032242324322469817A81EA
:100B5000762767277627072E000C880B990B0E94B3
:100B60001E0920E030E043E053E40E94AA08F501AA
:100B70006083718382839383B201550C880B990B38
:100B80000E941E0920E030E043E053E40E94AA08DE
:100B9000F4016083718382839383B101330C880BEA
:100BA000990B0E941E0920E030E043E053E40E94CC
:100BB000AA08F3016083718382839383BE016F5F10
:100BC0007F4F89E60E94E604882309F46BC08B807E
:100BD0009C80982489249824AD80BE80BA24AB24BC
:100BE000BA2469817A81762767277627072E000C39
:100BF000880B990B0E941E0920E030E043E053E48B
:100C00000E94AA08F6016083718382839383B401F2
:100C1000990C880B990B0E941E0920E030E043E0FC
:100C200053E40E94AA08F80160837183828393834E
:100C3000B501BB0C880B990B0E941E0920E030E027
:100C400043E053E40E94AA08F70160837183828322
:100C5000938326960FB6F894DEBF0FBECDBFDF910B
:100C6000CF911F910F91FF90EF90DF90CF90BF90A9
:100C7000AF909F908F907F906F905F904F903F903C
:100C80002F900895F3011082118212821382F401D1
:100C90001082118212821382F50110821182128257
:100CA00013828CCFF7011082118212821382F80115
:100CB0001082118212821382F60110821182128236
:100CC0001382C7CFCF93DF93CDB7DEB7A5970FB60B
:100CD000F894DEBF0FBECDBF0E94B2010E941F027A
:100CE0000E94660160E072EC81E090E00E9477046F
:100CF0000E94F0038AE092E00E945C0286E091E0AC
:100D00000E94980411E00E94F603812F880F0E9430
:100D10000204082F0E94FE03087F083151F58CE180
:100D200091E00E94980481E1E3EFF1E0DE01119689
:100D300001900D928A95E1F7E12FE295EF7081E045
:100D400090E08C0F9D1F8E0F911DFC0180810E94F1
:100D50009104E12FEF7081E090E08C0F9D1F8E0FCA
:100D6000911DFC0180810E94910480EF91E00E941E
:100D700098049FEF29EF80E0915020408040E1F7F8
:100D800000C000001F5F1F3709F0BDCF86E291E071
:100D90000E9498040E94290582E391E00E94980431
:100DA0000E947301882341F08AE092E00E94680269
:100DB00088E491E00E949804CE0101967C018E01A6
:100DC0000E5E1F4F9E012A5E3F4FAE01465E5F4F93
:100DD000BE01625E7F4F81960E947805CA8CDB8CD3
:100DE000EC8CFD8C0E8D1F8D28A139A14AA15BA131
:100DF0006CA17DA18AE092E00E9488028BE691E0DE
:100E00000E9498046AA17BA18CA19DA142E00E944E
:100E1000A40484E791E00E9498046E8D7F8D88A1E0
:100E200099A142E00E94A40484E791E00E94980402
:100E30006A8D7B8D8C8D9D8D42E00E94A40480EF95
:100E400091E00E94980487E791E00E9498046E89DF
:100E50007F89888D998D42E00E94A40484E791E007
:100E60000E9498046A897B898C899D8942E00E944E
:100E7000A40484E791E00E94980469817A818B81BF
:100E80009C8142E00E94A40480EF91E00E949804BB
:100E9000E0901002F090110283E891E00E94980423
:100EA0008EE991E00E94980410E000E0E016F1065F
:100EB00009F06FC080EF91E00E94980488EA91E009
:100EC0000E949804F12CE12C0E151F0509F07AC040
:100ED00080EF91E00E94980482EB91E00E949804D8
:100EE000F12CE12C0E151F0509F086C08CEB91E06A
:100EF0000E94980440E050E060E87FE38AE092E0DE
:100F00000E9436014B015C0140E050E060E87FE365
:100F10008AE092E00E9446012B013C0140E050E053
:100F200060E87FE38AE092E00E9456016B017C0159
:100F300087ED91E00E94980442E0C501B4010E944F
:100F4000A40484E791E00E94980442E0C301B20146
:100F50000E94A40484E791E00E94980442E0C70143
:100F6000B6010E94A4048EEE91E00E9498048701CD
:100F70007601A3019201C501B4010E94B9018FEF6E
:100F800093ED20E3815090402040E1F700C0000045
:100F900007CFC801880F991F880F991FE0910A0297
:100FA000F0910B02E80FF91F6081718182819381BA
:100FB00042E00E94A40484E791E00E9498040F5F3D
:100FC0001F4F74CFC701880F991F880F991FE09199
:100FD0000C02F0910D02E80FF91F6081718182818E
:100FE000938142E00E94A40484E791E00E94980467
:100FF0009FEFE91AF90A68CFC701880F991F880F78
:10100000991FE0910E02F0910F02E80FF91F608125
:1010100071818281938142E00E94A40484E791E07F
:101020000E9498042FEFE21AF20A5CCFA1E21A2E76
:10103000AA1BBB1BFD010DC0AA1FBB1FEE1FFF1F7C
:10104000A217B307E407F50720F0A21BB30BE40BCC
:10105000F50B661F771F881F991F1A9469F7609513
:101060007095809590959B01AC01BD01CF010895CD
:101070005058BB27AA270E9450080C9494090E943C
:10108000860938F00E948D0920F039F49F3F19F449
:1010900026F40C9483090EF4E095E7FB0C947D098B
:1010A000E92F0E94A50958F3BA176207730784074E
:1010B000950720F079F4A6F50C94C7090EF4E09595
:1010C0000B2EBA2FA02D0B01B90190010C01CA0102
:1010D000A0011124FF27591B99F0593F50F4503EAD
:1010E00068F11A16F040A22F232F342F4427585F9F
:1010F000F3CF469537952795A795F0405395C9F7B7
:101100007EF41F16BA0B620B730B840BBAF091506E
:10111000A1F0FF0FBB1F661F771F881FC2F70EC00D
:10112000BA0F621F731F841F48F4879577956795E0
:10113000B795F7959E3F08F0B0CF9395880F08F0CC
:101140009927EE0F9795879508950E94590908F4FD
:1011500081E008950E94BE080C9494090E948D09B4
:1011600058F00E94860940F029F45F3F29F00C9462
:101170007D0951110C94C8090C9483090E94A5099A
:1011800068F39923B1F3552391F3951B550BBB27B6
:10119000AA2762177307840738F09F5F5F4F220FFB
:1011A000331F441FAA1FA9F335D00E2E3AF0E0E8F2
:1011B00032D091505040E695001CCAF72BD0FE2F3C
:1011C00029D0660F771F881FBB1F261737074807D0
:1011D000AB07B0E809F0BB0B802DBF01FF27935888
:1011E0005F4F3AF09E3F510578F00C947D090C94C6
:1011F000C8095F3FE4F3983ED4F3869577956795E9
:10120000B795F7959F5FC9F7880F911D96958795BC
:1012100097F90895E1E0660F771F881FBB1F6217DB
:1012200073078407BA0720F0621B730B840BBA0B99
:10123000EE1F88F7E0950895E89409C097FB3EF407
:1012400090958095709561957F4F8F4F9F4F992313
:10125000A9F0F92F96E9BB279395F6958795779591
:101260006795B795F111F8CFFAF4BB0F11F460FF51
:101270001BC06F5F7F4F8F4F9F4F16C0882311F0A9
:1012800096E911C0772321F09EE8872F762F05C0BD
:10129000662371F096E8862F70E060E02AF09A9558
:1012A000660F771F881FDAF7880F9695879597F94D
:1012B0000895990F0008550FAA0BE0E8FEEF1616E7
:1012C0001706E807F907C0F012161306E407F5073A
:1012D00098F0621B730B840B950B39F40A2661F0AE
:1012E000232B242B252B21F408950A2609F4A14051
:1012F000A6958FEF811D811D089597F99F6780E85E
:1013000070E060E008959FEF80EC089500240A9457
:101310001616170618060906089500240A941216D0
:101320001306140605060895092E0394000C11F403
:10133000882352F0BB0F40F4BF2B11F460FF04C0B0
:101340006F5F7F4F8F4F9F4F089557FD9058440F09
:10135000551F59F05F3F71F04795880F97FB991F14
:1013600061F09F3F79F087950895121613061406D1
:10137000551FF2CF4695F1DF08C01616170618065E
:10138000991FF1CF86957105610508940895E89439
:10139000BB2766277727CB0197F908950E94590943
:1013A00008F48FEF08950E94E6090C9494090E94B6
:1013B000860938F00E948D0920F0952311F00C94D5
:1013C0007D090C94830911240C94C8090E94A50975
:1013D00070F3959FC1F3950F50E0551F629FF00188
:1013E000729FBB27F00DB11D639FAA27F00DB11DA1
:1013F000AA1F649F6627B00DA11D661F829F22272A
:10140000B00DA11D621F739FB00DA11D621F839FB0
:10141000A00D611D221F749F3327A00D611D231F86
:10142000849F600D211D822F762F6A2F11249F57D4
:1014300050409AF0F1F088234AF0EE0FFF1FBB1FD7
:10144000661F771F881F91505040A9F79E3F510596
:1014500080F00C947D090C94C8095F3FE4F3983E3A
:10146000D4F3869577956795B795F795E7959F5F40
:10147000C1F7FE2B880F911D9695879597F90895D2
:10148000EF920F931F93CF93DF93E80134E047FD72
:1014900034E1042E000C550B57FF03C051954195C4
:1014A0005109E32E022F242FAE010E94830BCE019F
:1014B000DF91CF911F910F91EF9008950F931F939C
:1014C000CF93DF938230910510F482E090E0E091B9
:1014D0002002F091210230E020E0B0E0A0E030975F
:1014E00099F42115310509F44AC0281B390B243021
:1014F0003105D8F58A819B816115710589F1FB0160
:1015000093838283FE0111C0408151810281138146
:1015100048175907E0F04817590799F4109761F0F8
:1015200012960C93129713961C933296CF01DF916B
:10153000CF911F910F9108950093200210932102E3
:10154000F4CF2115310551F04217530738F0A901A6
:10155000DB019A01BD01DF01F801C1CFEF01F9CF35
:101560009093210280932002CDCFFE01E20FF31F62
:10157000819391932250310939832883D7CF2091C9
:101580001E0230911F02232B41F420910201309161
:10159000030130931F0220931E022091000130911D
:1015A00001012115310541F42DB73EB740910401E9
:1015B00050910501241B350BE0911E02F0911F0292
:1015C000E217F307A0F42E1B3F0B2817390778F01A
:1015D000AC014E5F5F4F2417350748F04E0F5F1F79
:1015E00050931F0240931E02819391939FCFF0E08E
:1015F000E0E09CCFCF93DF930097E9F0FC013297B6
:1016000013821282A0912002B0912102ED0130E0FC
:1016100020E01097A1F420813181820F931F209147
:101620001E0230911F022817390709F061C0F0939C
:101630001F02E0931E02DF91CF910895EA01CE17B9
:10164000DF07E8F54A815B819E0141155105B1F73D
:10165000E901FB83EA8349915991C40FD51FEC1727
:10166000FD0761F4808191810296840F951FE90145
:1016700099838883828193819B838A83F0E0E0E071
:1016800012968D919C9113970097B9F52D913C91ED
:101690001197CD010296820F931F20911E02309167
:1016A0001F022817390739F6309751F51092210299
:1016B00010922002B0931F02A0931E02BCCFD383CE
:1016C000C28340815181840F951FC817D90761F4E7
:1016D0004E5F5F4F88819981480F591F5183408326
:1016E0008A819B81938382832115310509F0B0CFD4
:1016F000F0932102E09320029ECFFD01DC01C0CFD8
:1017000013821282D7CFA9E0B0E0E9E8FBE00C94A5
:10171000C00D6A01F22EB02E102FFBE3AF2EA016E3
:1017200008F41BE31F5F012F27E0AE014F5F5F4FFF
:101730000E94E20CBC018981982F9970913009F4C4
:101740003FC09BE2E1FC04C09E2D9170E0FC3AC0DA
:101750005E2D5071E82FE87083FF46C084E0911140
:1017600001C083E0EF2DE81B8F1508F0E0E0D60103
:101770008E2F20E2552351F1992329F0D6019C9315
:10178000C60101966C0196012D5F3F4FE2FE24C019
:101790008EE4D6018C9391E411969C931197129646
:1017A0008C93D9018E2F90E281111BC0E20FF32F91
:1017B000F11D10828EEF9FEF2996ECE00C94DC0D6A
:1017C0009DE2C6CF90E2C4CF2D9381508111FCCF12
:1017D000CE0ED11CE0E0D0CF8EE6D6018C9391E600
:1017E000DBCF9D938150E0CF482F447082FF3DC0F6
:1017F00084E0911101C083E08F1510F4EF2DE81BF8
:10180000D6018E2F20E2552309F1992329F0D60124
:101810009C93C60101966C0196012D5F3F4FE2FE3D
:101820001BC089E4D6018C938EE411968C9311979A
:1018300086E412968C93D9018E2F90E2882309F4C6
:10184000B5CF9D938150FACF2D9381508111FCCF5C
:10185000CE0ED11CE0E0D9CF89E6D6018C938EE67E
:1018600011968C93119786E6E4CF9B0177FF02C017
:1018700030E020E0A1E0B0E0911102C0B0E0A0E0D3
:10188000F9013196AE0FBF1F8B2C912CBB2009F4B0
:1018900061C05401EFEFAE1ABE0AAA0DBB1DFA16C5
:1018A0001B0619F014F04F2D4A1B511188C0E3FCA0
:1018B00059C07601A42FB0E2A1114FC0C40ED11CB3
:1018C000992309F45BC040E0D6011196F60190839C
:1018D0006D01552309F448C0012F060F9A81582F36
:1018E000507184FF03C0913309F4015010160CF0BD
:1018F00047C0093008F008E0EEE2FE2E5B01A01AB6
:10190000B10885019194819491082F3F320729F401
:10191000D601FC92F60131966F016217730794F1BC
:10192000021713077CF5DB01A21BB30BAA24A394B7
:10193000B12CAC0EBD1EAA0DBB1D11968C91215071
:101940003109D601119628153905F4F0F601808386
:101950006D01DBCFB12CA12CA0CFF701B1937F019A
:10196000A150AACF9111B0CFD601942F50E302C05D
:101970005D9391509111FCCFC40ED11C40E0ACCFCF
:1019800001E0BACF80E3DBCF6217730731F49633FF
:1019900088F4953311F4552369F0F6018083FD0135
:1019A000842F90E2811108C0A40FB11D1C9290E019
:1019B00080E002CF81E3F1CF91938150F3CF911179
:1019C00083CF8ACF283008F027E03327DA01990F38
:1019D000311D87FD916000966105710539F4326013
:1019E0002E5F3D9330E32A95E1F708959F3F30F055
:1019F00080387105610509F03C5F3C5F3D93913093
:101A000008F08068911DDF93CF931F930F93FF928F
:101A1000EF92192F987F9695E92F96959695E90F55
:101A2000FF27EE53FF4F99273327EE24FF24A7010A
:101A3000E70105900894079428F4360FE71EF81E76
:101A4000491F511D660F771F881F991F0694A1F724
:101A50000590079428F4E70EF81E491F561FC11D74
:101A6000770F881F991F661F0694A1F705900794AA
:101A700028F4F80E491F561FC71FD11D880F991F44
:101A8000661F771F0694A1F70590079420F4490F6D
:101A9000561FC71FD81F990F661F771F881F0694F0
:101AA000A9F784911095177041F0D695C795579571
:101AB0004795F794E7941A95C1F7E8E6F0E0689443
:101AC0001590159135916591959105907FE27395EB
:101AD000E118F10A430B560BC90BD009C0F7E10C12
:101AE000F11E431F561FC91FD01D7EF4703311F421
:101AF0008A95E6CFE894015030F0080F0AF40027E9
:101B0000021708F4202F2395022F7A3328F079E367
:101B10007D932A95E9F710C07D932A9589F606945E
:101B200097956795379517951794E118F10A430B28
:101B3000560BC90BD00998F023957E9173957A3393
:101B400008F070E37C932013B8F77E9170617D9369
:101B500030F0839571E37D9370E32A95E1F71124CA
:101B6000EF90FF900F911F91CF91DF91992787FD03
:101B7000909508952F923F924F925F926F927F922D
:101B80008F929F92AF92BF92CF92DF92EF92FF928D
:101B90000F931F93CF93DF93CDB7DEB7CA1BDB0B39
:101BA0000FB6F894DEBF0FBECDBF09942A883988DE
:101BB00048885F846E847D848C849B84AA84B984E5
:101BC000C884DF80EE80FD800C811B81AA81B981F1
:101BD000CE0FD11D0FB6F894DEBF0FBECDBFED0105
:061BE0000895F894FFCF08
:101BE6000000220220005363616E6E696E67204911
:101BF6003243206275732E2E2E0D0A0020466F7515
:101C06006E64203078005363616E20646F6E650DDC
:101C16000A0053656E736F727320696E6974696129
:101C26006C697A65640D0A00427574746F6E207073
:101C3600726573736564202D3E20636C6561726501
:101C460064206172726179730D0A004D505531201E
:101C5600473A20002C2000207C204D50553220474A
:101C66003A20000D0A3D3D3D2044796E616D696361
:101C760020417272617973203D3D3D0D0A00616E0F
:101C8600676C655F783A2000616E676C655F793ACC
:101C96002000616E676C655F7A3A20000D0A3D3D53
:101CA6003D3D3D3D3D3D3D3D3D3D3D3D3D3D3D3D5E
:101CB6003D3D3D3D0D0A0053696D70736F6E207298
:101CC6006573756C7420582F592F5A3A20000D0AE7
:101CD6000D0A003031323334353637383941424314
:041CE600444546002B
:00000001FF
